:060000000A128A1100291A
:10000800F000030EF1000B1914200C181A208C189C
:1000180031200B183B20710E8300F00E700E090082
:1000280003138312E13081000B110800E0308F00C8
:10003800C0308E000C10A60B08003C30A600A70AA2
:100048003C302702031D0800A80AA701183028021F
:10005800031D3028AE0AA80108008C100915A00B52
:1000680008003720080009110230A000080086188F
:100078004228A10A043021020319A1010B1008002B
:10020000A2217221792186219421C721850103131E
:10021000831208140230A0003C30A6000630A8006B
:100220000930A7000130AE000130AF002108850081
:100230001B21562116298A010A1421080339820735
:1002400024294D2954295529322129080023A200A7
:100250002A080023A50040212B080023A3002C0816
:100260000023A4002708AD000A30AD02031C3B297F
:10027000AA0A830135290A30AD072D08A900080014
:100280002808AD000A30AD02031C4829AC0A4229F7
:100290000A30AD072D08AB0008002F080023A3008B
:1002A0002E080023A20008000800080008185E2994
:1002B000881863290819682988196D298801220876
:1002C00087008814080088012308870008150800A3
:1002D0008801240887008815080088012508870000
:1002E00008140800031383160F140F138F160F1230
:1002F000080003138316811281110111811001106E
:1003000003138312E13081000B11080003138312E1
:10031000101390161016901190101014E0308F00EA
:10032000C0308E000C100800031383167A30920040
:1003300003138312921412141217921612169215A6
:100340001215080003178316880189010313831609
:100350008501890103138312850103138316811319
:100360001514951415159515870108108810081196
:1003700088110812861406140615861503138312B5
:1003800087010810881008118811850108000313DF
:1003900083161614961416159615031383160C144B
:1003A0008C14031383128B100B178B178B160B11E6
:0A03B0000C108C108B150B100800C8
:100600008A018A140A140F3982073F3406345B3496
:100610004F3466346D347D3407347F346F348A014F
:100620008A140A140F39820700341F341C341F3413
:100630001E341F341E341F341F341E341F341E3426
:020640001F3465
:04400E00D420FF3F7C
:00000001FF
