:060000000A128A1100291A
:10000800F000030EF1000B1914200C181A208C189C
:1000180020200B182A20710E8300F00E700E0900A4
:1000280003138312E13081000B110800E0308F00C8
:10003800C0308E000C1008008C100915A00B0800A9
:100048002620080009110230A0000800861CA10A19
:0600580021080B10080056
:100200004025102517252425322563258601031353
:0C021000831208140230A0003C30A6004D
:100600008A018A140F3982073F3406345B344F3431
:0C06100066346D347D3407347F346F3461
:100A00008A010A140A15073982070A2D0C2D0E2DAA
:100A10000E290800051408008514080005150800B3
:100A2000031383160F140F138F160F1208000313EE
:100A30008316811281110111811001100313831299
:100A4000E13081000B11080003138312101390167C
:100A50001016901190101014E0308F00C0308E00EE
:100A60000C100800031383167A30920003138312CC
:100A700092141214121792161216921512150800DB
:100A800003178316880189010313831685018901E1
:100A90000313831285010313831681131514951410
:100AA000870108108810081188110812861406148E
:100AB0000615861503138312870108108810081184
:100AC0008811850108000313831616149614031366
:100AD00083160C148C14031383120B178B178B16AD
:0A0AE0000B110C108C100B10080015
:04400E00D420FF3F7C
:00000001FF
