:060000000A128A1100291A
:10000800F000030EF1000B1914200C181A208C189C
:1000180040200B184A20710E8300F00E700E090064
:1000280003138312E13081000B110800E0308F00C8
:10003800C0308E000C104821A60B08003C30A600EA
:10004800A70A3C302702031D0800A80AA701183098
:100058002802031D0800B10AA80132080F23310243
:10006800031D0800B20A0130B1000D303202031D31
:1000780008000130B20008008C100915A00B080018
:100088004620080009110230A000080086185128EF
:10009800A10A043021020319A10189100B100800DC
:10020000B52285228C229922A7221E21DA2285017D
:100210000313831208140230A0003C30A600013002
:10022000A8000130A7001C30B1000230B2000F302E
:10023000B9000030B8003F2169221B29A001A101AB
:10024000A201A301A401A501A601A701A801A9017A
:10025000AA01AB01AC01B101B201AD01AF01B00126
:10026000B101B201B301B401B501B601B701B801E2
:10027000B901BA01BB01BC01BD01BE0108008A0180
:100280000A142108033982075529A9290E2A672A49
:100290003A18B90B0800B803031851293C30B900CB
:1002A00008003A10B8018914080085010514652179
:1002B00029080023A2002A080023A50087212B0873
:1002C0000023A3002C080023A4002708AD00AE01E2
:1002D000AE0A3C30AD02031868293C302D07B0004F
:1002E0002E03AF002F08AA003008A900AD00AE0110
:1002F000AE0A0A30AD02031878290A302D07B00083
:100300002E03AF002F08AA003008A9000800280813
:10031000AD00AE01AE0A1830AD0203188A291830BC
:100320002D07B0002E03AF002F08AC003008AB0043
:10033000AD00AE01AE0A0A30AD0203189A290A30A8
:100340002D07B0002E03AF002F08AC003008AB0023
:10035000080085018514BA21EC2135080023A3008B
:1003600036080023A400C72133080023A200340864
:100370000023A50032080F2331020319B10132080E
:100380000F233102031CC6293208B10008003208CD
:100390000F23B7003108AD00AE01AE0A3730AD0211
:1003A0000318CD2937302D07B0002E03AF002F08DA
:1003B000B4003008B300AD00AE01AE0A0A30AD02A1
:1003C0000318DD290A302D07B0002E03AF002F08D7
:1003D000B4003008B30008003208AD00AE01AE0A28
:1003E0000D30AD020318EF290D302D07B0002E039C
:1003F000AF002F08B6003008B500AD00AE01AE0A60
:100400000A30AD020318FF290A302D07B0002E0371
:10041000AF002F08B6003008B500080085010515AB
:10042000061C3A14061D3A1022223D080023A200A1
:100430003E080023A50044223B080023A3003C08FB
:100440000023A4003808AD00AE01AE0A3C30AD0276
:100450000318252A3C302D07B0002E03AF002F08CB
:10046000BC003008BB00AD00AE01AE0A0A30AD02E0
:100470000318352A0A302D07B0002E03AF002F08CD
:10048000BC003008BB0008003908AD00AE01AE0A60
:100490003C30AD020318472A3C302D07B0002E0334
:1004A000AF002F08BE003008BD00AD00AE01AE0A9F
:1004B0000A30AD020318572A0A302D07B0002E0368
:1004C000AF002F08BE003008BD0008000800552905
:1004D00008000818712A8818762A08197B2A8819B2
:1004E000802A8801220887008814080088012308D0
:1004F000870008150800880124088700881508006F
:1005000088012508870008140800031383160F14B8
:100510000F138F160F120800031383168112811117
:1005200001118110011003138312E13081000B11BE
:1005300008000313831210139016101690119010D8
:100540001014E1308F007C308E000C100800031373
:1005500083167A3092000313831292141214121726
:1005600092161216921512150800031783168801A9
:100570008901031383168501890103138312850101
:1005800003138316811315149514151595158701FA
:100590000810881008118811081286140614061510
:1005A000861503138312870108108810081188111B
:1005B0008501080003138316161496141615961554
:1005C000031383160C148C14031383128B100B1754
:1005D0008B178B160B110C108C108B150B10080041
:100600008A018A140A140F3982073F3406345B3496
:100610004F3466346D347D3407347F346F348A014F
:100620008A140A140F398207003420341D34203410
:100630001F3420341F34203420341F3420341F341E
:02064000203464
:04400E00C420FF3F8C
:00000001FF
