:060000000A128A1100291A
:10000800F000030EF1000B1914200C181A208C189C
:1000180030200B183A20710E8300F00E700E090084
:1000280003138312E13081000B110800E0308F00C8
:10003800C0308E000C10A60B08003C30A600A70AA2
:100048003C302702031D0800A80AA701183028021F
:10005800031DA90AA80108008C100915A00B0800A7
:100068003620080009110230A0000800861842282E
:0E007800A10A043021020319A1010B10080097
:10020000642434243B24482456248924860103137F
:10021000831208140230A0003C30A600210885009B
:08022000002408240E29080047
:100600008A018A140F3982073F3406345B344F3431
:0C06100066346D347D3407347F346F3461
:100800008A010A15210803398207252C322C332C42
:100810000818102C8818152C08191A2C88191F2C48
:1008200088012208870088140800880123088700AF
:100830000815080088012408870088150800880129
:100840002508870008140800080026080023A200D5
:1008500027080023A30028080023A400260800235B
:10086000A500080008000800031383160F140F13D7
:100870008F160F12080003138316811281110111C4
:100880008110011003138312E13081000B11080065
:100890000313831210139016101690119010101459
:1008A000E0308F00C0308E000C1008000313831658
:1008B0007A309200031383129214121412179216B4
:1008C0001216921512150800031783168801890164
:1008D0000313831685018901031383128501031312
:1008E0008316811315149514151595158701081095
:1008F000881008118811081286140614061586152A
:1009000003138312870108108810081188118501CC
:100910000800031383161614961416159615031360
:1009200083160C148C14031383120B178B178B165E
:0C0930000B110C108C108B150B10080024
:04400E00D420FF3F7C
:00000001FF
