:060000000A128A112C28EF
:10000800F000030EF1000B1912200C1819208C189F
:100018002220710E8300F00E700E09000313831264
:10002800E13081000B11B2200800E0308F00C030B1
:100038008E000C10F30A3E20452008008C1006158F
:10004800F20B08002820080006110230F200080010
:100058007B204B2052205F206D20982086010230A3
:10006800F2000A30FA003C30FB0003138312081434
:10007800A5203C28FA0B0800F3010A30FA00F90A17
:100088000800FB0B0800F9013C30FB0008000313D3
:1000980083160F140F138F160F12080003138316FD
:1000A8008112811101118110011003138312E130B3
:1000B80081000B11080003138312101390161016F9
:1000C800901190101014E0308F00C0308E000C108A
:1000D8000800031383167A309200031383129214D4
:1000E80012141217921612169215121508000317F9
:1000F800831688018901031383168501860103137A
:1001080083128501031383168701081088100811CC
:100118008811081203138312870108108810081128
:1001280088118501F4010800031383160C148C143C
:10013800031383120B178B178B160B110C108C10D3
:10014800080073080022F50073080022F6007908F9
:100158000022F70079080022F80008000818BA28D9
:100168008818BF280819C4288819C928880175085B
:100178008700881408008801760887000815080099
:1001880088017708870088150800880178088700A3
:04019800081408003F
:100400008A018A140F3982073F3406345B344F3433
:0C04100066346D347D3407347F346F3463
:04400E00D420FF3F7C
:00000001FF
