:060000000A128A1100291A
:10000800F000030EF1000B1914200C181A208C189C
:100018003F200B184920710E8300F00E700E090066
:1000280003138312E13081000B110800E0308F00C8
:10003800C0308E000C10A60B08003C30A600A70AA2
:100048003C302702031D0800A80AA701183028021F
:10005800031D0800B10AA80132080F233102031D4D
:100068003E28B20A0130B1000D303202031D3E288D
:100078000130B20008008C100915A00B08004520BB
:10008800080009110230A000080086185028A10AAB
:0C009800043021020319A1010B10080024
:100200002C22FC21032210221E22512285010313DD
:10021000831208140230A0003C30A6001730A8005A
:100220003B30A7001F30B1000C30B2001921E02193
:1002300016298A010A1421080339820722297629FE
:10024000DB29DE2985010514322129080023A200BB
:100250002A080023A50054212B080023A3002C0802
:100260000023A4002708AD00AE01AE0A3C30AD0269
:10027000031835293C302D07B0002E03AF002F089E
:10028000AA003008A900AD00AE01AE0A0A30AD02E6
:10029000031845290A302D07B0002E03AF002F08A0
:1002A000AA003008A90008002808AD00AE01AE0A77
:1002B0001830AD020318572918302D07B0002E034F
:1002C000AF002F08AC003008AB00AD00AE01AE0AA5
:1002D0000A30AD02031867290A302D07B0002E033B
:1002E000AF002F08AC003008AB0008008501851472
:1002F0008721B92135080023A30036080023A40074
:10030000942133080023A20034080023A5003208FA
:100310000F2331020319B10132080F233102031CEC
:1003200093293208B100080032080F23B7003108C2
:10033000AD00AE01AE0A3730AD0203189A2937304E
:100340002D07B0002E03AF002F08B4003008B30013
:10035000AD00AE01AE0A0A30AD020318AA290A3078
:100360002D07B0002E03AF002F08B4003008B300F3
:1003700008003208AD00AE01AE0A0D30AD02031820
:10038000BC290D302D07B0002E03AF002F08B6009A
:100390003008B500AD00AE01AE0A0A30AD02031858
:1003A000CC290A302D07B0002E03AF002F08B6006D
:1003B0003008B5000800850105150800222908004D
:1003C0000818E8298818ED290819F2298819F72949
:1003D0008801220887008814080088012308870004
:1003E000081508008801240887008815080088017E
:1003F0002508870008140800031383160F140F1331
:100400008F160F1208000313831681128111011138
:100410008110011003138312E13081000B110800D9
:1004200003138312101390161016901190101014CD
:10043000E0308F00C0308E000C10080003138316CC
:100440007A30920003138312921412141217921628
:1004500012169215121508000317831688018901D8
:100460000313831685018901031383128501031386
:100470008316811315149514151595158701081009
:10048000881008118811081286140614061586159E
:100490000313831287010810881008118811850141
:1004A00008000313831616149614161596150313D5
:1004B00083160C148C14031383128B100B178B17D9
:0E04C0008B160B110C108C108B150B100800F6
:100600008A018A140A140F3982073F3406345B3496
:100610004F3466346D347D3407347F346F348A014F
:100620008A140A140F398207003420341D34203410
:100630001F3420341F34203420341F3420341F341E
:02064000203464
:04400E00D420FF3F7C
:00000001FF
