:060000000A128A1100291A
:10000800F000030EF1000B1914200C181A208C189C
:1000180040200B184A20710E8300F00E700E090064
:1000280003138312E13081000B110800E0308F00C8
:10003800C0308E000C104821A60B08003C30A600EA
:10004800A70A3C302702031D0800A80AA701183098
:100058002802031D0800B10AA80132080F23310243
:10006800031D0800B20A0130B1000D303202031D31
:1000780008000130B20008008C100915A00B080018
:100088004620080009110230A000080086185128EF
:10009800A10A043021020319A10189100B100800DC
:10020000C52295229C22A922B7221E21EA2285011D
:100210000313831208140230A0003C30A600013002
:10022000A8000130A7001C30B1000230B2000F302E
:10023000B9000030B8003F2179221B29A001A1019B
:10024000A201A301A401A501A601A701A801A9017A
:10025000AA01AB01AC01B101B201AD01AF01B00126
:10026000B101B201B301B401B501B601B701B801E2
:10027000B901BA01BB01BC01BD01BE0108008A0180
:100280000A142108033982075529B9291E2A772A19
:100290003A18B90B0800B803031851293C30B900CB
:1002A00008003A10B8018914080085010514861D5C
:1002B000AB29672129080023A2002A080023A500F2
:1002C00089212B080023A3002C080023A400270861
:1002D000AD00AE01AE0A3C30AD0203186A293C30D5
:1002E0002D07B0002E03AF002F08AA003008A90088
:1002F000AD00AE01AE0A0A30AD0203187A290A3009
:100300002D07B0002E03AF002F08AA003008A90067
:1003100008002808AD00AE01AE0A1830AD0203187F
:100320008C2918302D07B0002E03AF002F08AC0029
:100330003008AB00AD00AE01AE0A0A30AD020318C2
:100340009C290A302D07B0002E03AF002F08AC0007
:100350003008AB000800061CA70A061DA703861D6F
:10036000B229AB29061CA80A061DA803861D55291B
:10037000B22985018514CA21FC2135080023A30078
:1003800036080023A400D72133080023A200340834
:100390000023A50032080F2331020319B1013208EE
:1003A0000F233102031CD6293208B100080032089D
:1003B0000F23B7003108AD00AE01AE0A3730AD02F1
:1003C0000318DD2937302D07B0002E03AF002F08AA
:1003D000B4003008B300AD00AE01AE0A0A30AD0281
:1003E0000318ED290A302D07B0002E03AF002F08A7
:1003F000B4003008B30008003208AD00AE01AE0A08
:100400000D30AD020318FF290D302D07B0002E036B
:10041000AF002F08B6003008B500AD00AE01AE0A3F
:100420000A30AD0203180F2A0A302D07B0002E0340
:10043000AF002F08B6003008B5000800850105158B
:10044000061C3A14061D3A1032223D080023A20071
:100450003E080023A50054223B080023A3003C08CB
:100460000023A4003808AD00AE01AE0A3C30AD0256
:100470000318352A3C302D07B0002E03AF002F089B
:10048000BC003008BB00AD00AE01AE0A0A30AD02C0
:100490000318452A0A302D07B0002E03AF002F089D
:1004A000BC003008BB0008003908AD00AE01AE0A40
:1004B0003C30AD020318572A3C302D07B0002E0304
:1004C000AF002F08BE003008BD00AD00AE01AE0A7F
:1004D0000A30AD020318672A0A302D07B0002E0338
:1004E000AF002F08BE003008BD00080008005529E5
:1004F00008000818812A8818862A08198B2A881962
:10050000902A88012208870088140800880123089F
:10051000870008150800880124088700881508004E
:1005200088012508870008140800031383160F1498
:100530000F138F160F1208000313831681128111F7
:1005400001118110011003138312E13081000B119E
:1005500008000313831210139016101690119010B8
:100560001014E0308F00C0308E000C100800031310
:1005700083167A3092000313831292141214121706
:100580009216121692151215080003178316880189
:1005900089010313831685018901031383128501E1
:1005A00003138316811315149514151595158701DA
:1005B00008108810081188110812861406140615F0
:1005C00086150313831287010810881008118811FB
:1005D0008501080003138316161496141615961534
:1005E000031383160C148C14031383128B100B1734
:1005F0008B178B160B110C108C108B150B10080021
:100600008A018A140A140F3982073F3406345B3496
:100610004F3466346D347D3407347F346F348A014F
:100620008A140A140F398207003420341D34203410
:100630001F3420341F34203420341F3420341F341E
:02064000203464
:04400E00C420FF3F8C
:00000001FF
